:020000040800F2
:10000000D88F002051010008751300086104000812
:10001000711300081D030008511A000800000000B9
:10002000000000000000000000000000F5160008BD
:100030002103000800000000BD020008E1170008CD
:100040006B0100086B0100086B0100086B010008E0
:100050006B0100086B0100086B0100086B010008D0
:100060006B0100086B0100086B0100086B010008C0
:100070006B0100086B0100086B0100086B010008B0
:100080006B0100086B0100086B0100086B010008A0
:100090006B0100086B0100086B0100086B01000890
:1000A0006B0100086B0100086B0100086B01000880
:1000B0006B0100086B0100086B0100086B01000870
:1000C0006B0100086B0100086B0100086B01000860
:1000D0006B0100086B0100086B0100086B01000850
:1000E0006B0100086B0100086B0100086B01000840
:1000F0006B0100086B0100086B0100086B01000830
:100100006B0100086B0100086B0100086B0100081F
:100110006B0100086B0100086B0100086B0100080F
:100120006B0100086B0100086B0100086B010008FF
:10013000DFF810D000F074F8004800473D1C0008BC
:10014000AFF3008000060020EFF305807047000049
:100150000648804706480047FEE7FEE7FEE7FEE761
:10016000FEE7FEE7FEE7FEE7FEE7FEE70918000808
:1001700031010008124C134D256013484FF0010166
:1001800001604FF0020080F31488104842680F4865
:1001900002600E4B186887884FF0100847EA08077E
:1001A0008780D0F800C00CF1240CBCE8FF008CF371
:1001B0000988AE4687F3038862B6304700BF000067
:1001C00020ED00E00000F0F078060020400600205E
:1001D000D2B201E000F8012B491EFBD27047002289
:1001E000F6E710B513460A4604461946FFF7F0FF36
:1001F000204610BD30B50B460146002020220124C8
:1002000009E021FA02F59D4205D303FA02F5491BE4
:1002100004FA02F52844151EA2F10102F1DC30BDFA
:10022000064C074D06E0E06840F0010394E8070043
:1002300098471034AC42F6D3FFF77EFF582C0008E5
:10024000882C000870B58C1810F8015B15F00703B6
:1002500001D110F8013B2A1106D110F8012B03E05F
:1002600010F8016B01F8016B5B1EF9D12B0705D467
:100270000023521E0DD401F8013BFAE710F8013BB0
:10028000CB1A921C03E013F8015B01F8015B521ECC
:10029000F9D5A142D8D3002070BD0000EFF3108043
:1002A00072B67047EFF3108062B6704780F3108823
:1002B000704717484FF0805101607047EFF3108C82
:1002C00072B6144A12681AB100B590475DF804EB93
:1002D000EFF3098020E9F01F0F4D2E683060B788DA
:1002E0004FF0100827EA0807B7800B4840682860DD
:1002F00087884FF0100847EA080787800168B1E84F
:10030000F01F81F309888CF31088704700BF00004C
:1003100004ED00E07C0600204006002000BFFEE760
:10032000704701B502E00098401E00900098002838
:10033000F9D108BD2DE9F041024600250026002034
:1003400000230024002791F803C00CF00F0591F85A
:1003500003C00CF0100CBCF1000F03D091F802C0E8
:100360004CEA050591F800C0BCF1000F31D01468CB
:1003700000202BE04FF0010C0CFA00F3B1F800C0A4
:100380000CEA03069E4220D183004FF00F0C0CFABA
:1003900003F7BC4305FA03FC4CEA040491F803C0DC
:1003A000BCF1280F06D14FF0010C0CFA00FCC2F88A
:1003B00014C00AE091F803C0BCF1480F05D14FF01A
:1003C000010C0CFA00FCC2F810C0401C0828D1D364
:1003D0001460B1F800C0BCF1FF0F34DD5468002098
:1003E0002EE000F1080C4FF0010808FA0CF3B1F808
:1003F00000C00CEA03069E4221D183004FF00F0C8F
:100400000CFA03F7BC4305FA03FC4CEA040491F828
:1004100003C0BCF1280F05D100F1080C08FA0CF854
:10042000C2F8148091F803C0BCF1480F07D100F165
:10043000080C4FF0010808FA0CF8C2F81080401CB4
:100440000828CED35460BDE8F081024600209368AE
:100450000B400BB1012000E00020704701617047A4
:1004600000BFFEE708B50121442001F0C9F81C20B7
:10047000ADF8000048208DF8030069460648FFF7F4
:1004800059FF0120ADF8000028208DF803006946CF
:100490000248FFF74FFF08BD001801400008014067
:1004A00010B5044614B101202C4908702B4800787F
:1004B000002837D010212A48FFF7C7FF78B108215C
:1004C0002748FFF7C2FF50B104212548FFF7BDFFC1
:1004D00028B101212348FFF7B8FF012822D10A20C3
:1004E00001F082FB00201D49087010211C48FFF715
:1004F000ACFF08B9012010BD08211948FFF7A5FF7E
:1005000008B90220F7E704211548FFF79EFF08B954
:100510000320F0E701211348FFF797FF01281BD1C3
:100520000420E8E710210E48FFF78FFF012813D1C0
:1005300008210B48FFF789FF01280DD10421084845
:10054000FFF783FF012807D101210648FFF77DFF50
:1005500010B90120014908700020CCE724060020D2
:10056000001801400008014008B50121082001F0F1
:1005700047F82020ADF8000010208DF8030003207C
:100580008DF8020069460948FFF7D4FE0120ADF856
:10059000000069460548FFF7CDFE20210348FFF71C
:1005A0005DFF01210148FFF759FF08BD000C014024
:1005B00002465018401E904204D95018401E4B1E4F
:1005C00098437047481E22EA0000FAE710B5024639
:1005D00014462046002305E001464960096000BF3B
:1005E0005B1C08301B2BF7D310BD2DE9F0410546ED
:1005F0000E462F46304600F08BF804461E2C02D9DA
:100600000020BDE8F081042C00D80424201F07EB53
:10061000C000F6E742684A600860426811604160C5
:10062000704742684A6008604268116041607047E4
:1006300042684A60086042681160416070474268E1
:100640004A600860426811604160704742684A60D1
:1006500008604268116041607047D0E90012116083
:10066000D0E9002151600021416001607047D0E96C
:1006700000121160D0E90021516000214160016049
:100680007047D0E900121160D0E9002151600021CB
:1006900041600160704701464868884201D10120ED
:1006A00070470020FCE701464868884201D10120DC
:1006B00070470020FCE701464868884201D10120CC
:1006C00070470020FCE740600060704740600060B9
:1006D000704740600060704740600060704770B5D0
:1006E00004460D4629462068FFF794FF70BD70B59B
:1006F00004460D4629462068FFF793FF70BD70B58C
:1007000004460D4629462068FFF799FF70BD00009A
:10071000014601F0004010B16FF0704070474C4846
:100720000840002847D001F0FE40F8B101F0E04059
:1007300058B101F0804008B11E20EFE701F00050F1
:1007400008B11D20EAE71C20E8E701F0406030B165
:1007500001F0006008B11B20E0E71A20DEE701F09D
:10076000007008B11920D9E71820D7E701F470000C
:1007700080B101F4400030B101F4000008B117204D
:10078000CCE71620CAE701F4001008B11520C5E730
:100790001420C3E701F4402030B101F4002008B177
:1007A0001320BBE71220B9E701F4003008B1112093
:1007B000B4E71020B2E701F47F4020B301F47040A9
:1007C00080B101F4404030B101F4004008B10F2085
:1007D000A4E70E20A2E701F4005008B10D209DE728
:1007E0000C209BE701F4406030B101F4006008B1D7
:1007F0000B2093E70A2091E701F4007008B109206B
:100800008CE708208AE701F0F00080B101F0C00019
:1008100030B101F0800008B107207FE706207DE7B6
:1008200001F0200008B1052078E7042076E701F008
:100830000C0030B101F0080008B103206EE702207F
:100840006CE701F0020008B1012067E7002065E7CE
:100850000000FF7F2DE9F04105460C460026FFF71A
:100860001DFD074600BF05B104B909E004F00040D2
:1008700000B105E02146284601F0B9FA064600BF5E
:1008800000BF3846FFF712FD3046BDE8F0812DE984
:10089000F05F80460F4614464FF00009CA46002517
:1008A0000026FFF7FBFC834600BFB8F1000F00D025
:1008B00007B91BE0381900F1040909F0004000B144
:1008C00014E04946404601F092FA05462819401EB8
:1008D000611E20EA0106B54200D107E0A6EB050A39
:1008E0004AF0804A46F804AC354600BF00BF58467F
:1008F000FFF7DCFC2846BDE8F09F2DE9F0470546F0
:100900000C4601270026FFF7C9FC814600BFB04610
:1009100005B104B914E054F8046C06F0804010B13D
:1009200026F08046A41BA4F110084146284601F099
:100930008CFA07461FB92946404601F0FAFA00BF73
:1009400000BF4846FFF7B2FC3846BDE8F0872DE906
:10095000F04704468846002500270026A94614B122
:10096000B8F1FF0F03D84FF0FF30BDE8F087FFF775
:1009700095FC8246264634463660C6F8048004F16B
:100980000800FFF723FE04F1E005281BA8EB000098
:100990001038E8600020A86004F10800E968FFF75B
:1009A00024FE8146B9F1000F05D15046FFF77EFCC9
:1009B0004FF0FF30D9E700BF2946D9F80000FFF714
:1009C00045FE00BF04EB0800A0F1100700203860CE
:1009D0007860B860F860BD601020F860F86840F09A
:1009E0000040F860384601F02FFB5046FFF75EFCF0
:1009F0000020BAE72DE9F04105462F4600260024E5
:100A000015B90020BDE8F081FFF748FC804607F1EA
:100A10000806306820B134682068306004482060DF
:100A20004046FFF743FC0CB90020EBE7201DE9E747
:100A3000A55A5AA52DE9F04705460E462C46012732
:100A400005B116B90120BDE8F087FFF727FC804605
:100A500000BF311F20460A46D0F800C0BCF1000F8D
:100A600002D14FF0010C25E000F10C0CA2EB0C03BD
:100A7000D0F800C0B3FBFCF90CFB193CBCF1000F33
:100A800002D04FF0010C15E0D0F800C0B3FBFCFC25
:100A9000D0F80490CC4502D34FF0010C0AE0DFF807
:100AA0003490D2F800C0CC4502D04FF0010C01E0E8
:100AB0004FF0000CBCF1000F00D004E0A06808600B
:100AC000A160002700BF00BF4046FFF7EFFB38469C
:100AD000B9E70000A55A5AA52DE9F04706460F468A
:100AE00090463446002516B90120BDE8F087B8F1DC
:100AF000000F01D10120F8E70C2F01D20120F4E70B
:100B0000FFF7CCFB824608F1070020F003002060CD
:100B1000A7F10C002168B0FBF1F06060606820B9BB
:100B20005046FFF7C3FB0120DFE704F10C05A56089
:100B30004FF0000905E02068284428602D6809F17D
:100B400001096068401E4845F5D8002028605046DD
:100B5000FFF7ACFB0020C8E700BFD0E9001211602E
:100B6000D0E90021516000214160016000BF704761
:100B700010B50A460649096801EBC20319684C68BA
:100B8000446001604C682060486000BF00BF10BD39
:100B900028060020014600200022074B1B6803EBBB
:100BA000C1035A6801E0401C5268034B1B6803EB09
:100BB000C1039342F7D1704728060020002100208E
:100BC000014612E00B4A126802EBC1004268824201
:100BD00001D1012200E000222AB90648006800EB9A
:100BE000C10040687047481C01462029EAD3002014
:100BF000F8E70000280600202DE9F84F81460C4652
:100C000015469A460A9E15B91948BDE8F88F4FF661
:100C1000FB70864202DD16480938F6E704B116B9C2
:100C20001348401CF1E7FFF739FB8046301D82B2C4
:100C30006B462946204601F0A9FA074627B14046EF
:100C4000FFF734FB3846E0E700981430FFF741FD2A
:100C500000981C30FFF73DFD00982430FFF739FD68
:100C60000098C4814046FFF721FB0020CDE700003B
:100C70000C0600022DE9FC5F80460F4691461E4699
:100C800000200090A8F1010BBBF10A0F02D34048ED
:100C9000BDE8FC9F17B93E48401CF9E7B9F1000FC9
:100CA00002D13B48801CF3E72EB13A48006810B1EE
:100CB00037480A30ECE7FFF7F1FA01900BEB4B00F5
:100CC00000EBCB003449096801EB8004A08820B90F
:100CD00000BF2F480E30009054E0208A50BB26B948
:100CE00000BF2B480F3000904CE02C48008820B10A
:100CF00000BF27480838009044E02948056832467C
:100D000004F11C01284601F095FA0198FFF7CEFA8C
:100D100000F0E6F8FFF7C2FA0190287900F04000F1
:100D200058B1A88820F04000A88000BF1848C01F14
:100D3000009027E0208A401E208261892289206855
:100D400001FB020ADAF8000038606089401C80B2BA
:100D50006081E188884201D10020608104F11400A3
:100D6000FFF7A1FC50B904F1140001F0A5FA0198B5
:100D7000FFF79CFA00F0B4F8002089E7E089401CF6
:100D8000E08100BF0198FFF791FA009880E700002A
:100D90000E060002C0060020A4060020480600201F
:100DA000400600202DE9FC5F81460F4690461E4616
:100DB00000200090A9F1010BBBF10A0F02D34348B8
:100DC000BDE8FC9F17B94148401CF9E7B8F1000F96
:100DD00002D13E48801CF3E72EB13D48006810B1B7
:100DE0003A480838ECE7FFF759FA01900BEB4B0053
:100DF00000EBCB003749096801EB8004A08820B9DB
:100E000000BF3248C01C00905BE02089404504D2FE
:100E100000BF2E48001D009053E0E08950BB26B96A
:100E200000BF2A48401D00904BE02B48008820B1AD
:100E300000BF26480B38009043E02848056832463A
:100E400004F11401284601F0F5F90198FFF72EFA94
:100E500000F046F8FFF722FA0190287900F04000F0
:100E600058B1A88820F04000A88000BF17480A3871
:100E7000009026E0E089401EE081A1892289206857
:100E800001FB020ACAF80070A089401C80B2A08150
:100E9000E188884201D10020A08104F11C00FFF705
:100EA00002FC50B904F11C0001F006FA0198FFF7AA
:100EB000FDF900F015F8002082E7208A401C20820E
:100EC00000BF0198FFF7F2F9009879E711060002D8
:100ED000C0060020A406002048060020400600208E
:100EE00010B5FFF7DBF90446FFF768FE3C380A4906
:100EF0004860084600684968884208D0074800886A
:100F000028B92046FFF7D2F9FFF7D3F910BD2046E4
:100F1000FFF7CCF900BFF9E74006002048060020A3
:100F20002DE9F04106462A48006800EB06150A2E16
:100F300002D32848BDE8F081FFF7B0F907462878CA
:100F400020B93846FFF7B2F92248F3E768884FF630
:100F5000FE71884205D13846FFF7A8F91D48C01D2B
:100F6000E8E705F10800FFF7A6FB48BBE868A0F139
:100F70003C04E868FFF77BFBA08820F00800A08015
:100F8000207900F0400030B1204601F0CFFDA0886C
:100F900020F04000A0800020A061207900F0020035
:100FA00040B9A08840F00400A080E18804F13C0032
:100FB000FFF7DEFD3846FFF779F9FFF791FF05E00F
:100FC0006888401C68803846FFF770F90020B1E758
:100FD000B00600200107000210B501F07BFD0446B9
:100FE0000CB1204610BDFFF7C5F82046FAE7000017
:100FF0002DE9F04105460F4600263946284600F007
:1010000045F8064616B13046BDE8F081286800EB89
:10101000800101EBC0001949096801EBC004FFF72A
:101020003DF98046A08820F00200A080A08840F012
:101030000400A080E18804F13C00FFF799FDFFF770
:10104000BDFD3C380E4948600E48006888B10E4826
:10105000008870B9084600684968884209D00A4883
:10106000008830B94046FFF721F901F061F900200E
:10107000CAE74046FFF71AF90020C5E73C06002002
:101080004006002078060020480600202DE9F05F89
:1010900007460D464FF000094FF0FF3A17B9574881
:1010A000BDE8F09F15B95548801FF9E7E86910B908
:1010B0005248801EF4E7286810B95048C01EEFE778
:1010C000A8881F2802DD4D48001FE9E7A869B0F590
:1010D000004F02D949481930E2E7A86910B94FF426
:1010E0008060A8610821A869FFF762FAA861102151
:1010F0004FF49870FFF75CFAA969884202D93F481B
:10110000401ECDE7FFF7CAF8834611E03C4840682F
:10111000A0F13C043A494868FFF79FFA04F13C010A
:101120003848FFF777FA3848E1680068FFF7E5FBD1
:101130003348FFF7B0FA0028E8D03248FFF7ABFA9F
:1011400028B1DFF8B8A00AF10A0A00BF51E02D4823
:101150004068A0F13C042B494868FFF77EFA5846E6
:10116000FFF7A4F8D4F8109008222748A96900686E
:10117000FFF78DFB06465EB9FFF790F8834604F152
:101180003C012048FFF746FADFF880A000BF30E0BE
:1011900032464846A96901F01BFD8046C4F800802C
:1011A000A868A062E968E1622969216369696163ED
:1011B000E660A869A0600020A061E0616062022092
:1011C000A080A088296A09B1802100E0002108439D
:1011D000A080A888E080286860614FF0FF3020651B
:1011E0000020E065E869A06300206066C7F8009011
:1011F00056E75846FFF75AF8504651E707020002F3
:101200006806002060060020B406002000020003EB
:1012100070B504461948006808B1194870BD1948EE
:10122000008808B11848F9E714B900F05FF8F5E74D
:10123000FFF734F805461549096801F13C00FFF74E
:101240008BFC12480068808820F004000F49096870
:1012500088800E490868214601F0CEF90B480068E5
:10126000808840F020000949096888802846FFF7F7
:101270001DF8FFF735FE0020D0E70000C006002073
:101280000D020003480600200E0200024006002066
:1012900010B5FFF703F8044604480088401C0349D2
:1012A00008802046FFF702F810BD00004806002025
:1012B00010B5FEF7F3FF04460B48008800280DDD4B
:1012C00009480088401E084908800846008828B957
:1012D0002046FEF7EBFFFFF703FE10BD2046FEF7AA
:1012E000E5FF00BFF9E700004806002070B50024C4
:1012F0001C48006800691C490968884201D31B48E2
:1013000070BDFEF7CBFF054616490968C888FFF790
:1013100041FC0446012C17D91249096801F13C002F
:10132000FFF79BF90F480068808840F004000D49E2
:10133000096888800B4A1268D1880A4A126802F14B
:101340003C00FFF715FC05E02846FEF7AFFF074815
:101350000930D5E72846FEF7A9FFFFF7C1FD0020B9
:10136000CEE70000400600204C06002007020002E5
:1013700000BFFEE7704708B54FF4A06000F046F8E4
:1013800026208DF8000001208DF801008DF8020064
:101390008DF80300684600F001F808BD70B5002123
:1013A00000230F22C47804B3154C246804F4E064CD
:1013B000C4F5E064210AC1F10403CA40447804FA88
:1013C00003F184781440214309010E4C0678A1559D
:1013D000047804F01F050124AC4005786D11AD00C0
:1013E00005F1E025C5F8004109E0047804F01F0587
:1013F0000124AC40044D0678761145F8264070BDB6
:101400000CED00E000E400E080E100E0024901436F
:10141000024A1160704700000000FA050CED00E080
:1014200008B500240020009013E04FF0FF330422A1
:10143000694608480068FFF71DFC04462CB900986F
:10144000016805A000F006FB03E0214608A000F0BB
:1014500001FBEAE714060020B3C9B9A6B6C1C8A1CA
:10146000B6D3C1D0CAFDBEDD3A25640A0000000033
:10147000CAFDBEDDB6C1C8A1B4EDCEF33A25640AFB
:101480000000000010B58AB000240520ADF8080067
:101490000BA008900D4801904FF4806007908020C9
:1014A000099001A90A48FFF7A3FD044614B120469C
:1014B0000AB010BD07A000F0CDFA2046F8E7000002
:1014C000517565756552656164000000211400085E
:1014D00020060020517565756552656164C8CECEE1
:1014E000F1B4B4BDA8B3C9B9A60A00001CB5002563
:1014F000012001900220009022E00020FEF7D0FFA2
:101500000446012C0BD10023042201A90D480068D8
:10151000FFF748FC054615B90BA000F09BFA042C18
:101520000BD100230422694606480068FFF73AFC05
:10153000054615B90AA000F08DFA1420FFF768FEE1
:10154000DBE7000014060020B3C9B9A6D0B4C8EB8D
:10155000B6D3C1D0CAFDBEDDA3BA310A0000000077
:10156000B3C9B9A6D0B4C8EBB6D3C1D0CAFDBEDDED
:10157000A3BA320A0000000010B58AB0002404208B
:10158000ADF808000BA008900D4801904FF4806062
:1015900007908020099001A90A48FFF729FD044619
:1015A00014B120460AB010BD07A000F053FA20463F
:1015B000F8E700005175657565577269746500003C
:1015C000ED1400081C060020517565756557726999
:1015D0007465C8CECEF1B4B4BDA8B3C9B9A60A002B
:1015E00029B1064AD2690243044BDA6104E0034A96
:1015F000D2698243014BDA6170470000001002405B
:1016000029B1064A92690243044B9A6104E0034AF5
:1016100092698243014B9A617047000000100240BA
:1016200030B500210022002400232D4D6D6805F007
:101630000C0121B1042905D0082923D105E0294D49
:10164000056022E0274D05601FE0254D6D6805F41B
:101650007012234D6D6805F48034022505EB92422B
:101660001CB9214D554305600BE01D4D6D6805F417
:1016700000351DB11C4D5543056002E0194D554321
:10168000056002E0174D056000BF00BF144D6D6896
:1016900005F0F0010909154D6B5C0568DD404560FA
:1016A0000F4D6D6805F4E061090A104D6B5C4568EB
:1016B000DD4085600A4D6D6805F46051C90A0B4D27
:1016C0006B5C4568DD40C560054D6D6805F44041C3
:1016D000890B074D6B5CC568B5FBF3F5056130BD43
:1016E0000010024000127A0000093D0000060020B0
:1016F00010060020704710B500F002F810BD000081
:101700000CB50020019000903348006840F4803010
:101710003149086000BF3048006800F40030009094
:101720000198401C0190009818B90198B0F5A06F7D
:10173000F1D12948006800F4003010B10120009078
:1017400001E0002000900098012843D12348006860
:1017500040F01000214908600846006820F00300AE
:1017600008600846006840F0020008601A484068B7
:10177000194948600846406848600846406840F497
:10178000806048600846406820F47C104860084645
:10179000406840F4E81048600846006840F08070F7
:1017A000086000BF0C48006800F000700028F9D005
:1017B0000948406820F0030007494860084640682F
:1017C00040F00200486000BF0348406800F00C0091
:1017D0000828F9D10CBD0000001002400020024092
:1017E00010B50848D0E900305A1C40F10000054906
:1017F000C1E9002001F0BEF901F080F800F0EAFE36
:1018000010BD00008006002010B51348006840F0AD
:1018100001001149086008464068104908400E4917
:101820004860084600680E4908400B4908600846B1
:10183000006820F4802008600846406820F4FE001C
:1018400048604FF41F008860FFF755FF4FF00060BD
:101850000449086010BD0000001002400000FFF8BD
:10186000FFFFF6FE08ED00E021B1828942F400524C
:10187000828104E082894DF6FF731A4082817047AD
:1018800000B585B001210420FFF7BAFE012148040C
:10189000FFF7A6FE0420ADF8100018208DF8130005
:1018A00003208DF8120004A91648FEF743FD082016
:1018B000ADF8100004208DF8130004A91148FEF7BC
:1018C00039FD4FF4E13000900020ADF80400ADF890
:1018D0000600ADF80800ADF80C000C20ADF80A00C9
:1018E0006946094800F044F8FFF745FD012240F23F
:1018F0002551054800F017F801210348FFF7B4FF10
:1019000005B000BD00080140004400400246002030
:10191000B1F5007F00D100BF13880B400BB101204F
:1019200000E000207047F0B50346002400260025A3
:10193000002040F66A17B94200D100BF1846C1F333
:10194000421401F01F06012707FA06F5012C01D108
:101950000C3004E0022C01D1103000E014301AB138
:1019600007682F43076002E00768AF430760F0BDD8
:101970002DE9F04786B005460E460024A24600BF7A
:10198000A1460027B08900B100BF2F462C8A4CF633
:10199000FF700440F08804432C82AC894EF6F310AB
:1019A0000440B08831890843718908430443AC81FD
:1019B000AC8A4FF6FF400440B0890443AC8201A8D2
:1019C000FFF72EFE1F48874202D1DDF810A001E08C
:1019D000DDF80CA0A88900F4004040B10AEBCA0071
:1019E00000EB0A1031684900B0FBF1F807E00AEBA0
:1019F000CA0000EB0A1031688900B0FBF1F86420DE
:101A0000B8FBF0F004012009642101FB1089A889CA
:101A100000F4004040B1322000EBC900B0FBF1F00F
:101A200000F00700044308E0322000EB09106421B5
:101A3000B0FBF1F000F00F0004432C8106B0BDE8CC
:101A4000F087000000380140C1F30802828070472F
:101A500000BFFEE70FB4054B10B503A9044A029876
:101A600000F018F810BC5DF814FB0000091C000819
:101A7000C406002002E008C8121F08C1002AFAD1DB
:101A800070477047002001E001C1121F002AFBD1FE
:101A9000704700002DE9FF4F89B09B4604460025A2
:101AA00006E025280BD05A460B999047641C6D1C04
:101AB00020780028F5D10DB02846BDE8F08F00272A
:101AC000B8460122474900E0074314F8013F203B94
:101AD00002FA03F00842F7D120782E2819D114F821
:101AE000010F47F004072A280ED06FF02F0220784C
:101AF000A0F1300109290CD808EB880102EB410163
:101B000000EB0108641CF2E70A98641C50F8048B8F
:101B10000A9020780028CED0642808D0692806D002
:101B200075281ED05A460B9990476D1C58E00A99AB
:101B30004FF00A0901C90A91002802DA40422D211A
:101B400002E0390504D52B218DF82010012103E096
:101B5000F90704D02021F7E78A4608AE0DE00021FE
:101B6000FAE70A994FF00A0901C90A91F7E74946CD
:101B7000FEF740FB303106F8011D0028F7D1ADEB30
:101B8000060000F12009780701D44FF00108C8458C
:101B900002DDA8EB090000E000208046002706E0F7
:101BA00008A85A46C05D0B9990476D1C7F1C57458D
:101BB000F6DB04E030205A460B9990476D1CB8F1D3
:101BC0000001A8F10108F5DC05E016F8010B5A4602
:101BD0000B9990476D1CB9F10001A9F10109F4DCE2
:101BE000641C65E709280100002107E042F6E06176
:101BF00000BF0A1EA1F1010399B2FAD1021EA0F1A1
:101C0000010398B2F2D1704770B504460D46E1B2B7
:101C10000548FFF719FF00BF80210348FFF776FE54
:101C20000028F9D0204670BD0044004010B5FEF7F2
:101C30009BFCFFF725FEFEF715FC10BD10B500F06C
:101C4000A5F804460CB1012010BD00F005F8FFF71F
:101C5000C3F900BFFEE7000038B50024FFF7E6FF38
:101C60002020114908601148FEF75BFB10A0FFF728
:101C7000F1FE10200023134A0A21009012A0FEF763
:101C8000BBFF044614B913A0FFF7E4FEFFF774FC92
:101C900004460CB1204638BDFFF7F4FB04460CB1F6
:101CA0002046F8E70020F6E7140C0140FFFF0F0084
:101CB000506F7765726564206279204C6974654F56
:101CC000530D0A0014060020544553545F515545E6
:101CD00055450000B6D3C1D0B4B4BDA8B3C9B9A6A8
:101CE00000000000FEF730FA00BFFEE700BFFEE78D
:101CF00010B58AB0242101A8FEF771FA0A480190B4
:101D00004FF4A060079009A008901F20ADF80800CC
:101D100001A90948FFF76CF9044614B120460AB03E
:101D200010BD0020FBE70000ED1C000849646C6555
:101D3000436F7265303030005006002070B5FEF7FA
:101D4000ADFA05460F480068401C0E490860284659
:101D5000FEF7ACFAFEF7F8F904460B4850F82400F9
:101D600018B1094951F824008047FEF797FA054653
:101D700004480068401E034908602846FEF796FAAA
:101D800070BD0000C0060020D887002010B500F00C
:101D9000C1FA00F097F904460CB1204610BD00F0DE
:101DA000E1FC04460CB12046F8E700F0C5FA044611
:101DB0000CB12046F2E700F097F904460CB120463A
:101DC000ECE700F01BFA04460CB12046E6E700F011
:101DD000DFFA04460CB12046E0E700F0F1FEFFF721
:101DE00087FF04460CB12046D8E70020D6E72DE94E
:101DF000F04107460E46002406F1130020F00305CB
:101E00002946384600F06DF8044614B90020BDE8B4
:101E1000F08105F11400E168814204D32A4621468D
:101E2000384600F021F92046FEF72BFC204600F052
:101E30000BF9E06840F00040E060E16821F000400C
:101E400000F03EFD04F11000E1E72DE9F84F0546F2
:101E50000C462E4605F1E00870682844A0F1100AEF
:101E6000706847194FF000092B46524641462046FC
:101E7000009700F0B7F810B90120BDE8F88FE068CE
:101E800000F0004008B90120F7E7E06820F00040CA
:101E900000EB04092B46524641464846009700F0A5
:101EA000A1F808B90120E8E7D9F80800A04201D05C
:101EB0000120E2E7444512D000972B4652464146A6
:101EC000A06800F08FF808B90120D6E7A068C168C3
:101ED00021F000410844A04201D00120CDE70020BC
:101EE000CBE770B505460E460024314605F10800E3
:101EF000FEF77BFB044618E000206168084605E019
:101F0000C168B14200D370BD41680846A042F7D114
:101F100005F108002146024602F1D0038B4201D1AF
:101F2000002301E001F108031C46002CE4D100204D
:101F3000E9E72DE9F04104460E460027B846E1687E
:101F400021F0004000F0A2FCE06820F00040E060DA
:101F5000A06848B3A068C06800F0004020BBA56836
:101F6000204600F05EF8E86820F000404719F86865
:101F700000F0004028B93846FEF783FB384600F0F1
:101F800050F82846FEF77DFB06F10800E968FEF7E9
:101F90002CFB8046B8F1000F01D1BDE8F081294645
:101FA0004046FEF753FB1BE0E06820F000400719B5
:101FB000F86800F0004028B93846FEF762FB384662
:101FC00000F02FF806F10800E168FEF70EFB8046EE
:101FD000B8F1000F00D1E0E721464046FEF736FB9E
:101FE00000BFDAE730B50446039DA14201D8944210
:101FF00001D9002030BDE06800F0004038B1206811
:102000006040401C08B10020F4E70120F2E720689E
:10201000984202D32068A84201D30020EAE70120B9
:10202000E8E700218268D268C3681A448368DA60EE
:10203000C268111882688A6000BF00220260426094
:10204000826000BF70470000C14301600549096814
:1020500021B1044909680969416002E04FF0FF318C
:1020600041607047400600202DE9F04780460D464C
:10207000164600240027A146AC19A560E868801B1D
:10208000E060EE60E06820F000400719BC60F8688E
:1020900000F0004028B93846FEF7F3FA3846FFF75B
:1020A000C0FF08F10800E168FEF79FFA8146B9F128
:1020B000000F01D1BDE8F08721464846FEF7C6FA79
:1020C00000BFF7E710B50648064908604FF4004125
:1020D00004480068FEF73BFC0446204610BD0000A3
:1020E00098070020B406002070B51248FEF7EEFAFB
:1020F000F02111480068FEF7ADFB10490860084662
:10210000006808B90E4870BD00240EE004EB4400DE
:102110000A49096801EBC0056C600020287005F1D0
:1021200008010448FEF7E3FA641C0A2CEED30020F1
:10213000E9E700009C060020B40600209806002075
:10214000001D000270B5002400254FF4807529465B
:102150000C480068FEF77EFB0B49086008460068E3
:1021600000B970BD0020044608E00749096801EB8A
:10217000C4004060006000BF601C0446202CF4D303
:1021800000BFEEE7B4060020280600202DE9F04746
:10219000064688461746994615480468002507E014
:1021A000A08818B9681CC8F8000003E06D1C2C3426
:1021B0000A2DF5D300BF0A2D02D10E48BDE8F087E5
:1021C0002C212046FEF70BF806FB07F10A480068B1
:1021D000FEF740FB2060206810B90648801EEDE73E
:1021E000E68027810120A080C9F800400020E5E7B3
:1021F000A406002004060002B406002010B54FF427
:10220000DC7109480068FEF725FB084908600846AC
:10221000006808B9064810BD4FF4DC710348006837
:10222000FDF7DDFF0020F6E7B4060020A40600203D
:10223000010600022DE9F04104460D4617464FF015
:102240000008002604F13C00FEF786FCA08820F080
:102250000400A08004F13C08A08840F40050A08055
:102260002846FEF720FA30B100BF41462868FEF745
:10227000DFF900BF14E06868A0F13C0607E0E088E1
:10228000F188884200DA06E0306CA0F13C0606F1E5
:102290003C00A842F3D100BF4146F06BFEF7C8F9FD
:1022A000781C38B1A08840F04000A0803946204614
:1022B00000F0A2F9BDE8F08170B505466868A0F1AC
:1022C0003C046868D0E900121160D0E90021516037
:1022D00000214160016000BFA08820F40050A08070
:1022E000207900F0400030B1204600F01FFCA088AB
:1022F00020F04000A080207900F0020040B9A088C2
:1023000040F00400A080E18804F13C00FEF730FCBE
:1023100070BD0000102003490860034803490860AD
:10232000704700004C06002098870020B806002067
:1023300010B5FDF7BEFF10BD70B51148FEF7CCF922
:10234000A02110480068FEF785FA0F49086008468A
:10235000006808B90D4870BD00240CE00A48006808
:1023600000EB04156C600020287005F1080104489A
:10237000FEF7C5F9641C0A2CF0D30020EBE700003F
:10238000A8060020B4060020B006002000070002C6
:102390002DE9F8430020224908604FF400784146B7
:1023A00020480068FEF756FA044614B91E48BDE8F6
:1023B000F88341462046FDF712FF1C4804601C4884
:1023C00004600020208125462034012705E0278174
:1023D0002C602546781C87B22034102FF7DB0822AA
:1023E000D0211448FEF778FB064616B10E48C01CF3
:1023F000DDE704200023104A102100901846FEF764
:10240000FBFB064616B10848001DD0E700F06EF849
:10241000064616B10448401DC9E70020C7E7000082
:1024200038060020B4060020070300023006002012
:1024300034060020C80600202C06002010B500221B
:10244000002183793BB9437913B14379022B02D13F
:102450004369C36001E00369C3600F4B19680AE078
:10246000CB68C468A34200D907E0C368CC681B1BD3
:10247000C3600A4609680029F2D100BF016019B1A2
:10248000CB68C4681B1BCB6012B9034B186000E01B
:1024900010600223037110BD380600200EB5002025
:1024A000029000BF4FF0FF33042202A90D480068DC
:1024B000FEF7E0FB0446002CF4D102980028F1D08E
:1024C00002980068009002984068019006480299BE
:1024D000FEF7B0FA00980028E4D0DDE90010884744
:1024E000E0E700002C060020C806002010B58AB0E6
:1024F000242101A8FDF773FE094801904FF4806084
:10250000079008A008900020ADF8080080200990EE
:1025100001A90748FEF76CFD044620460AB010BD2D
:102520009D2400085377745F5461736B00000000B2
:102530005406002070B51F48046836E01D49206825
:1025400008601D48FEF756FA05467DB1E06928602F
:10255000A069686000230422294618480068FEF735
:1025600021FC18B129461448FEF764FA6079A0B935
:10257000204600F025F820894FF6E071884203DA02
:102580002089103020810EE02089C11700EB1171E5
:102590000911A0EB0111218105E0A079401CA07177
:1025A0002046FFF74BFF0348046814B1E068002899
:1025B000C4D070BD38060020C80600202C060020BC
:1025C00003490968016002490860002101717047F0
:1025D0003406002010B50748006848B10548006877
:1025E000C068401E03490968C86008B9FFF7A2FF28
:1025F000002010BD380600202DE9F047044688462B
:1026000008F01F074FEA581907B101E0A9F10109C5
:10261000E06C00F0784040EA0900E06425488088DA
:10262000074407F01F07E06C67F3DF60E0642148B0
:10263000006800EBC7067068B04205D104F14401A0
:102640003046FEF74CF833E07068A0F1440500BF57
:10265000E86C20F07840E16C21F0784188420CD899
:10266000E06C20F07840E96C21F07841401AE16C90
:1026700001F078410843E0640CE0E86C20F0784019
:10268000E16C21F07841401AE96C01F0784108438F
:10269000E86406E0A86CA0F1440505F14400B042EE
:1026A000D6D100BF04F1440105F14400FEF717F84C
:1026B000BDE8F087700600202DE9F041054605EBE6
:1026C000850000EBC5002349096801EBC004E069FF
:1026D00030B1666904F128000FC8B047206204E0F9
:1026E000666904F128000FC8B047207900F0800027
:1026F00050B1FDF7D3FD0746002017490880394641
:10270000206900F069F922E0FDF7C8FD07460020C6
:10271000114908803846FDF7C9FDFEF7B9FDE069AB
:1027200028B1E1694868FEF7FBFB0020E0612079F1
:1027300000F0040038B104F13C00FEF70DFAA08867
:1027400020F00400A080FEF7B3FDFEF7C9FBBDE852
:10275000F08100003C0600204806002072B600BF51
:10276000FEE7000070B540480068401C682100FB8F
:1027700001F631463D480068FEF76CF83C490860B8
:102780000846006808B93B4870BD314638480068C3
:10279000FDF725FD3848FDF796FF3848FDF793FF14
:1027A0003748FDF790FF002420E0012004EB84016E
:1027B00001EBC4012E4A126802EBC101888004EBD0
:1027C000840000EBC4002A49096801EBC0000461E1
:1027D00004EB840000EBC400254A126802EBC00041
:1027E00000F13C012548FDF77AFF641C0F2CDCD971
:1027F00024480021016041601B48006800EB800113
:1028000001EBC0001A49096801EBC0001D490860CE
:102810000846006804611120096888802020194951
:102820000968C880FFF78EFC4FF4807631460F4868
:102830000068FEF70FF805460DB90E48A4E73146CB
:102840002846FDF7CCFC1048056000200E49888022
:10285000002404E02846FDF736FF641C0835202CD0
:10286000F8D3002090E700004C060020B4060020BA
:102870003C060020000200035806002060060020ED
:102880006806002040060020700600200146094A24
:10289000126810690F2800D97047074A126802B100
:1028A000FAE7064A52F82020521A044B43F8202037
:1028B00000BFF1E740060020C006002098870020F6
:1028C00001460B4A126802B970470A4A126802B1FF
:1028D000FAE7074A126810690F2800D9F4E7064A98
:1028E00052F820200A44044B43F8202000BFEBE7B5
:1028F00040060020C0060020988700202DE9F04106
:10290000002734498988481CC11700EBD16149115F
:10291000A0EB41112F4A918010460068114689882A
:1029200000EBC1056868A84201D1BDE8F081686884
:10293000A0F1440443E0A688E06C20F0784018B190
:10294000E06C401EE0643EE004F14400FDF785FECB
:1029500006F0080058B1A08820F00800A08004F11B
:102960003C00FDF77AFE0020A061606217E006F4EB
:10297000806020B1A08820F48060A0800FE006F481
:10298000005040B104F13C00FDF767FEA08820F440
:102990000050A08003E0A08820F02000A08006F076
:1029A000020048B9A08840F00400A080E18804F14A
:1029B0003C00FEF7DDF801276868A0F1440404F14B
:1029C0004400A842B7D100BF0FB1FEF789FA00BF9B
:1029D000ABE70000700600202DE9F04105460F46E8
:1029E00005EB850000EBC5003649096801EBC00422
:1029F000A68806F0040040B104F13C00FEF7ACF8F4
:102A0000A08820F00400A0800DE042F208003040D1
:102A100048B104F13C00FDF720FE06F0600010B163
:102A2000204600F083F8A08820F00200A080A08853
:102A300040F00100A0804FF0FF3020650020E065ED
:102A4000FEF7BCF83C3820494860207900F01000BF
:102A500040B304F13C011D48FDF741FE1C480068ED
:102A600000EB800101EBC0001649096801EBC000D2
:102A700015490860084600680561A08809688880D3
:102A80001149E0680968C8600F49A06B096888634C
:102A90000120A0803846FDF709FCFFF749FC002023
:102AA000BDE8F081207900F0010030B13846FDF733
:102AB000FDFBFFF73DFC0020F2E73846FDF7F6FB93
:102AC0000020EDE73C0600204006002068060020BC
:102AD0004C0600200D480E49C8630E480E49C863D5
:102AE0000E480F49086000210E4A11605160401ED7
:102AF0004FF0E021486170200B49087000204FF032
:102B0000E021886107200861002070473D1D000812
:102B100000000020E1170008D887002040190100BC
:102B2000BC0600208006002023ED00E02DE9F041E6
:102B30000446E06CC70E0E48006800EBC706A06CA8
:102B4000B0420ED0A06CA0F14405E86C20F07840B3
:102B5000E16C21F078410844E96C01F078410843C8
:102B6000E86404F14400FDF778FDBDE8F081000061
:102B70007006002010B50F4800680F4909688842A8
:102B80000BD00D4800680B4908600846C1880B4807
:102B900000880844401E0749888006488188074805
:102BA000008880B2814204D1002002490860FEF70B
:102BB0009DFB10BD900600204006002080060020EE
:102BC0000020024908600A20C88070479006002053
:102BD00030B50446012304E04FF0CA3542F82350D3
:102BE0005B1CB3EB910FF7D34FF0CC351560551844
:102BF000A5F144004FF0043505604FF00535456000
:102C00004FF0063585604FF00735C5604FF0083549
:102C100005614FF0093545614FF0103585614FF082
:102C20001135C5610025056244624FF001358562AA
:102C30006D00C5624FF0033505634FF012354563F3
:102C4000034D8563034DC5634FF08075056430BD4A
:102C50005D270008B9260008882C00080000002025
:102C60000004000044020008A42C00080006002014
:102C7000C8000000741A00086C2D0008C806002067
:102C800010890000841A0008411351010C1008E556
:102C90001C040110A9180B14BD022401FF01FF013F
:102CA000FF01B3000000000001020304010203045D
:102CB00006070809020406080000000000000000E2
:102CC0000000000000000000010000000000000003
:102CD00000000000000000000000000000000000F4
:102CE00000000000000000000000000000000000E4
:102CF00000000000000000000000000000000000D4
:102D000000000000000000000000000000000000C3
:102D100000000000000000000000000000000000B3
:102D200000000000000000000000000000000000A3
:102D30000000000000000000000000000000000093
:102D40000000000000000000000000000000000083
:102D50000000000000000000000000000000000073
:0C2D600000000000000000000000000067
:0400000508000131BD
:00000001FF
